{
  "_format": "hh-sol-artifact-1",
  "contractName": "PriceConsumerV3",
  "sourceName": "contracts/PriceConsumerV3.sol",
  "abi": [
    {
      "inputs": [],
      "stateMutability": "nonpayable",
      "type": "constructor"
    },
    {
      "anonymous": false,
      "inputs": [
        {
          "indexed": true,
          "internalType": "address",
          "name": "previousOwner",
          "type": "address"
        },
        {
          "indexed": true,
          "internalType": "address",
          "name": "newOwner",
          "type": "address"
        }
      ],
      "name": "OwnershipTransferred",
      "type": "event"
    },
    {
      "inputs": [
        {
          "internalType": "address",
          "name": "token",
          "type": "address"
        },
        {
          "internalType": "address",
          "name": "oracle",
          "type": "address"
        }
      ],
      "name": "addOracle",
      "outputs": [],
      "stateMutability": "nonpayable",
      "type": "function"
    },
    {
      "inputs": [
        {
          "internalType": "address",
          "name": "token",
          "type": "address"
        }
      ],
      "name": "delOracle",
      "outputs": [],
      "stateMutability": "nonpayable",
      "type": "function"
    },
    {
      "inputs": [
        {
          "internalType": "address",
          "name": "token",
          "type": "address"
        }
      ],
      "name": "getTokenPrice",
      "outputs": [
        {
          "internalType": "int256",
          "name": "",
          "type": "int256"
        }
      ],
      "stateMutability": "view",
      "type": "function"
    },
    {
      "inputs": [
        {
          "internalType": "address",
          "name": "token",
          "type": "address"
        }
      ],
      "name": "oracleAvailable",
      "outputs": [
        {
          "internalType": "bool",
          "name": "",
          "type": "bool"
        }
      ],
      "stateMutability": "view",
      "type": "function"
    },
    {
      "inputs": [],
      "name": "owner",
      "outputs": [
        {
          "internalType": "address",
          "name": "",
          "type": "address"
        }
      ],
      "stateMutability": "view",
      "type": "function"
    },
    {
      "inputs": [],
      "name": "renounceOwnership",
      "outputs": [],
      "stateMutability": "nonpayable",
      "type": "function"
    },
    {
      "inputs": [
        {
          "internalType": "address",
          "name": "newOwner",
          "type": "address"
        }
      ],
      "name": "transferOwnership",
      "outputs": [],
      "stateMutability": "nonpayable",
      "type": "function"
    }
  ],
  "bytecode": "0x608060405234801561001057600080fd5b50600061002161016a60201b60201c565b9050806000806101000a81548173ffffffffffffffffffffffffffffffffffffffff021916908373ffffffffffffffffffffffffffffffffffffffff1602179055508073ffffffffffffffffffffffffffffffffffffffff16600073ffffffffffffffffffffffffffffffffffffffff167f8be0079c531659141344cd1fd0a4f28419497f9722a3daafe3b4186f6b6457e060405160405180910390a35073d8bd0a1cb028a31aa859a21a3758685a95de4623600160007301be23585060835e02b77ef475b0cc51aa1e070973ffffffffffffffffffffffffffffffffffffffff1673ffffffffffffffffffffffffffffffffffffffff16815260200190815260200160002060006101000a81548173ffffffffffffffffffffffffffffffffffffffff021916908373ffffffffffffffffffffffffffffffffffffffff160217905550610172565b600033905090565b610c94806101816000396000f3fe608060405234801561001057600080fd5b506004361061007d5760003560e01c80638da5cb5b1161005b5780638da5cb5b146100d8578063d02641a0146100f6578063f0ca4adb14610126578063f2fde38b146101425761007d565b8063226bb5c014610082578063715018a6146100b25780637dc79375146100bc575b600080fd5b61009c600480360381019061009791906108c3565b61015e565b6040516100a99190610af3565b60405180910390f35b6100ba610206565b005b6100d660048036038101906100d191906108c3565b610340565b005b6100e061043e565b6040516100ed9190610ad8565b60405180910390f35b610110600480360381019061010b91906108c3565b610467565b60405161011d9190610b0e565b60405180910390f35b610140600480360381019061013b91906108ec565b6105c0565b005b61015c600480360381019061015791906108c3565b6106be565b005b60008073ffffffffffffffffffffffffffffffffffffffff16600160008473ffffffffffffffffffffffffffffffffffffffff1673ffffffffffffffffffffffffffffffffffffffff16815260200190815260200160002060009054906101000a900473ffffffffffffffffffffffffffffffffffffffff1673ffffffffffffffffffffffffffffffffffffffff1614156101fc5760009050610201565b600190505b919050565b61020e610867565b73ffffffffffffffffffffffffffffffffffffffff1661022c61043e565b73ffffffffffffffffffffffffffffffffffffffff1614610282576040517f08c379a000000000000000000000000000000000000000000000000000000000815260040161027990610b69565b60405180910390fd5b600073ffffffffffffffffffffffffffffffffffffffff1660008054906101000a900473ffffffffffffffffffffffffffffffffffffffff1673ffffffffffffffffffffffffffffffffffffffff167f8be0079c531659141344cd1fd0a4f28419497f9722a3daafe3b4186f6b6457e060405160405180910390a360008060006101000a81548173ffffffffffffffffffffffffffffffffffffffff021916908373ffffffffffffffffffffffffffffffffffffffff160217905550565b610348610867565b73ffffffffffffffffffffffffffffffffffffffff1661036661043e565b73ffffffffffffffffffffffffffffffffffffffff16146103bc576040517f08c379a00000000000000000000000000000000000000000000000000000000081526004016103b390610b69565b60405180910390fd5b6000600160008373ffffffffffffffffffffffffffffffffffffffff1673ffffffffffffffffffffffffffffffffffffffff16815260200190815260200160002060006101000a81548173ffffffffffffffffffffffffffffffffffffffff021916908373ffffffffffffffffffffffffffffffffffffffff16021790555050565b60008060009054906101000a900473ffffffffffffffffffffffffffffffffffffffff16905090565b600080600160008473ffffffffffffffffffffffffffffffffffffffff1673ffffffffffffffffffffffffffffffffffffffff16815260200190815260200160002060009054906101000a900473ffffffffffffffffffffffffffffffffffffffff169050600015156104d98461015e565b1515141561051c576040517f08c379a000000000000000000000000000000000000000000000000000000000815260040161051390610b49565b60405180910390fd5b600081905060008060008060008573ffffffffffffffffffffffffffffffffffffffff1663feaf968c6040518163ffffffff1660e01b815260040160a06040518083038186803b15801561056f57600080fd5b505afa158015610583573d6000803e3d6000fd5b505050506040513d601f19601f820116820180604052508101906105a79190610928565b9450945094509450945083975050505050505050919050565b6105c8610867565b73ffffffffffffffffffffffffffffffffffffffff166105e661043e565b73ffffffffffffffffffffffffffffffffffffffff161461063c576040517f08c379a000000000000000000000000000000000000000000000000000000000815260040161063390610b69565b60405180910390fd5b80600160008473ffffffffffffffffffffffffffffffffffffffff1673ffffffffffffffffffffffffffffffffffffffff16815260200190815260200160002060006101000a81548173ffffffffffffffffffffffffffffffffffffffff021916908373ffffffffffffffffffffffffffffffffffffffff1602179055505050565b6106c6610867565b73ffffffffffffffffffffffffffffffffffffffff166106e461043e565b73ffffffffffffffffffffffffffffffffffffffff161461073a576040517f08c379a000000000000000000000000000000000000000000000000000000000815260040161073190610b69565b60405180910390fd5b600073ffffffffffffffffffffffffffffffffffffffff168173ffffffffffffffffffffffffffffffffffffffff1614156107aa576040517f08c379a00000000000000000000000000000000000000000000000000000000081526004016107a190610b29565b60405180910390fd5b8073ffffffffffffffffffffffffffffffffffffffff1660008054906101000a900473ffffffffffffffffffffffffffffffffffffffff1673ffffffffffffffffffffffffffffffffffffffff167f8be0079c531659141344cd1fd0a4f28419497f9722a3daafe3b4186f6b6457e060405160405180910390a3806000806101000a81548173ffffffffffffffffffffffffffffffffffffffff021916908373ffffffffffffffffffffffffffffffffffffffff16021790555050565b600033905090565b60008135905061087e81610c02565b92915050565b60008151905061089381610c19565b92915050565b6000815190506108a881610c30565b92915050565b6000815190506108bd81610c47565b92915050565b6000602082840312156108d557600080fd5b60006108e38482850161086f565b91505092915050565b600080604083850312156108ff57600080fd5b600061090d8582860161086f565b925050602061091e8582860161086f565b9150509250929050565b600080600080600060a0868803121561094057600080fd5b600061094e888289016108ae565b955050602061095f88828901610884565b945050604061097088828901610899565b935050606061098188828901610899565b9250506080610992888289016108ae565b9150509295509295909350565b6109a881610b9a565b82525050565b6109b781610bac565b82525050565b6109c681610bb8565b82525050565b60006109d9602683610b89565b91507f4f776e61626c653a206e6577206f776e657220697320746865207a65726f206160008301527f64647265737300000000000000000000000000000000000000000000000000006020830152604082019050919050565b6000610a3f602983610b89565b91507f546865206f7261636c6520796f7520726571756573746564206973206e6f742060008301527f617661696c61626c6500000000000000000000000000000000000000000000006020830152604082019050919050565b6000610aa5602083610b89565b91507f4f776e61626c653a2063616c6c6572206973206e6f7420746865206f776e65726000830152602082019050919050565b6000602082019050610aed600083018461099f565b92915050565b6000602082019050610b0860008301846109ae565b92915050565b6000602082019050610b2360008301846109bd565b92915050565b60006020820190508181036000830152610b42816109cc565b9050919050565b60006020820190508181036000830152610b6281610a32565b9050919050565b60006020820190508181036000830152610b8281610a98565b9050919050565b600082825260208201905092915050565b6000610ba582610bc2565b9050919050565b60008115159050919050565b6000819050919050565b600073ffffffffffffffffffffffffffffffffffffffff82169050919050565b6000819050919050565b600069ffffffffffffffffffff82169050919050565b610c0b81610b9a565b8114610c1657600080fd5b50565b610c2281610bb8565b8114610c2d57600080fd5b50565b610c3981610be2565b8114610c4457600080fd5b50565b610c5081610bec565b8114610c5b57600080fd5b5056fea2646970667358221220481bb0dbe0d0271374fb703e88a6553e39b1823fc83568098b0a2fb31bc6a2ee64736f6c63430008000033",
  "linkReferences": {},
  "deployedLinkReferences": {}
}