{
  "_format": "hh-sol-artifact-1",
  "contractName": "PriceConsumerV3",
  "sourceName": "contracts/PriceConsumerV3.sol",
  "abi": [
    {
      "inputs": [],
      "stateMutability": "nonpayable",
      "type": "constructor"
    },
    {
      "anonymous": false,
      "inputs": [
        {
          "indexed": true,
          "internalType": "address",
          "name": "previousOwner",
          "type": "address"
        },
        {
          "indexed": true,
          "internalType": "address",
          "name": "newOwner",
          "type": "address"
        }
      ],
      "name": "OwnershipTransferred",
      "type": "event"
    },
    {
      "inputs": [
        {
          "internalType": "address",
          "name": "token",
          "type": "address"
        },
        {
          "internalType": "address",
          "name": "oracle",
          "type": "address"
        }
      ],
      "name": "addOracle",
      "outputs": [],
      "stateMutability": "nonpayable",
      "type": "function"
    },
    {
      "inputs": [
        {
          "internalType": "address",
          "name": "token",
          "type": "address"
        }
      ],
      "name": "delOracle",
      "outputs": [],
      "stateMutability": "nonpayable",
      "type": "function"
    },
    {
      "inputs": [
        {
          "internalType": "address",
          "name": "token",
          "type": "address"
        }
      ],
      "name": "getTokenPrice",
      "outputs": [
        {
          "internalType": "int256",
          "name": "",
          "type": "int256"
        }
      ],
      "stateMutability": "nonpayable",
      "type": "function"
    },
    {
      "inputs": [],
      "name": "owner",
      "outputs": [
        {
          "internalType": "address",
          "name": "",
          "type": "address"
        }
      ],
      "stateMutability": "view",
      "type": "function"
    },
    {
      "inputs": [],
      "name": "renounceOwnership",
      "outputs": [],
      "stateMutability": "nonpayable",
      "type": "function"
    },
    {
      "inputs": [
        {
          "internalType": "address",
          "name": "newOwner",
          "type": "address"
        }
      ],
      "name": "transferOwnership",
      "outputs": [],
      "stateMutability": "nonpayable",
      "type": "function"
    }
  ],
  "bytecode": "0x608060405234801561001057600080fd5b50600061002161016a60201b60201c565b9050806000806101000a81548173ffffffffffffffffffffffffffffffffffffffff021916908373ffffffffffffffffffffffffffffffffffffffff1602179055508073ffffffffffffffffffffffffffffffffffffffff16600073ffffffffffffffffffffffffffffffffffffffff167f8be0079c531659141344cd1fd0a4f28419497f9722a3daafe3b4186f6b6457e060405160405180910390a35073d8bd0a1cb028a31aa859a21a3758685a95de4623600260007301be23585060835e02b77ef475b0cc51aa1e070973ffffffffffffffffffffffffffffffffffffffff1673ffffffffffffffffffffffffffffffffffffffff16815260200190815260200160002060006101000a81548173ffffffffffffffffffffffffffffffffffffffff021916908373ffffffffffffffffffffffffffffffffffffffff160217905550610172565b600033905090565b610b55806101816000396000f3fe608060405234801561001057600080fd5b50600436106100625760003560e01c8063715018a6146100675780637dc79375146100715780638da5cb5b1461008d578063d02641a0146100ab578063f0ca4adb146100db578063f2fde38b146100f7575b600080fd5b61006f610113565b005b61008b60048036038101906100869190610840565b61024d565b005b61009561034b565b6040516100a291906109e0565b60405180910390f35b6100c560048036038101906100c09190610840565b610374565b6040516100d291906109fb565b60405180910390f35b6100f560048036038101906100f09190610869565b610495565b005b610111600480360381019061010c9190610840565b610593565b005b61011b61073c565b73ffffffffffffffffffffffffffffffffffffffff1661013961034b565b73ffffffffffffffffffffffffffffffffffffffff161461018f576040517f08c379a000000000000000000000000000000000000000000000000000000000815260040161018690610a36565b60405180910390fd5b600073ffffffffffffffffffffffffffffffffffffffff1660008054906101000a900473ffffffffffffffffffffffffffffffffffffffff1673ffffffffffffffffffffffffffffffffffffffff167f8be0079c531659141344cd1fd0a4f28419497f9722a3daafe3b4186f6b6457e060405160405180910390a360008060006101000a81548173ffffffffffffffffffffffffffffffffffffffff021916908373ffffffffffffffffffffffffffffffffffffffff160217905550565b61025561073c565b73ffffffffffffffffffffffffffffffffffffffff1661027361034b565b73ffffffffffffffffffffffffffffffffffffffff16146102c9576040517f08c379a00000000000000000000000000000000000000000000000000000000081526004016102c090610a36565b60405180910390fd5b6000600260008373ffffffffffffffffffffffffffffffffffffffff1673ffffffffffffffffffffffffffffffffffffffff16815260200190815260200160002060006101000a81548173ffffffffffffffffffffffffffffffffffffffff021916908373ffffffffffffffffffffffffffffffffffffffff16021790555050565b60008060009054906101000a900473ffffffffffffffffffffffffffffffffffffffff16905090565b600080600260008473ffffffffffffffffffffffffffffffffffffffff1673ffffffffffffffffffffffffffffffffffffffff16815260200190815260200160002060009054906101000a900473ffffffffffffffffffffffffffffffffffffffff1690506103e283610744565b6103f0576000915050610490565b600081905060008060008060008573ffffffffffffffffffffffffffffffffffffffff1663feaf968c6040518163ffffffff1660e01b815260040160a06040518083038186803b15801561044357600080fd5b505afa158015610457573d6000803e3d6000fd5b505050506040513d601f19601f8201168201806040525081019061047b91906108a5565b94509450945094509450839750505050505050505b919050565b61049d61073c565b73ffffffffffffffffffffffffffffffffffffffff166104bb61034b565b73ffffffffffffffffffffffffffffffffffffffff1614610511576040517f08c379a000000000000000000000000000000000000000000000000000000000815260040161050890610a36565b60405180910390fd5b80600260008473ffffffffffffffffffffffffffffffffffffffff1673ffffffffffffffffffffffffffffffffffffffff16815260200190815260200160002060006101000a81548173ffffffffffffffffffffffffffffffffffffffff021916908373ffffffffffffffffffffffffffffffffffffffff1602179055505050565b61059b61073c565b73ffffffffffffffffffffffffffffffffffffffff166105b961034b565b73ffffffffffffffffffffffffffffffffffffffff161461060f576040517f08c379a000000000000000000000000000000000000000000000000000000000815260040161060690610a36565b60405180910390fd5b600073ffffffffffffffffffffffffffffffffffffffff168173ffffffffffffffffffffffffffffffffffffffff16141561067f576040517f08c379a000000000000000000000000000000000000000000000000000000000815260040161067690610a16565b60405180910390fd5b8073ffffffffffffffffffffffffffffffffffffffff1660008054906101000a900473ffffffffffffffffffffffffffffffffffffffff1673ffffffffffffffffffffffffffffffffffffffff167f8be0079c531659141344cd1fd0a4f28419497f9722a3daafe3b4186f6b6457e060405160405180910390a3806000806101000a81548173ffffffffffffffffffffffffffffffffffffffff021916908373ffffffffffffffffffffffffffffffffffffffff16021790555050565b600033905090565b60008073ffffffffffffffffffffffffffffffffffffffff16600260008473ffffffffffffffffffffffffffffffffffffffff1673ffffffffffffffffffffffffffffffffffffffff16815260200190815260200160002060009054906101000a900473ffffffffffffffffffffffffffffffffffffffff1673ffffffffffffffffffffffffffffffffffffffff1614156107e257600090506107e7565b600190505b919050565b6000813590506107fb81610ac3565b92915050565b60008151905061081081610ada565b92915050565b60008151905061082581610af1565b92915050565b60008151905061083a81610b08565b92915050565b60006020828403121561085257600080fd5b6000610860848285016107ec565b91505092915050565b6000806040838503121561087c57600080fd5b600061088a858286016107ec565b925050602061089b858286016107ec565b9150509250929050565b600080600080600060a086880312156108bd57600080fd5b60006108cb8882890161082b565b95505060206108dc88828901610801565b94505060406108ed88828901610816565b93505060606108fe88828901610816565b925050608061090f8882890161082b565b9150509295509295909350565b61092581610a67565b82525050565b61093481610a79565b82525050565b6000610947602683610a56565b91507f4f776e61626c653a206e6577206f776e657220697320746865207a65726f206160008301527f64647265737300000000000000000000000000000000000000000000000000006020830152604082019050919050565b60006109ad602083610a56565b91507f4f776e61626c653a2063616c6c6572206973206e6f7420746865206f776e65726000830152602082019050919050565b60006020820190506109f5600083018461091c565b92915050565b6000602082019050610a10600083018461092b565b92915050565b60006020820190508181036000830152610a2f8161093a565b9050919050565b60006020820190508181036000830152610a4f816109a0565b9050919050565b600082825260208201905092915050565b6000610a7282610a83565b9050919050565b6000819050919050565b600073ffffffffffffffffffffffffffffffffffffffff82169050919050565b6000819050919050565b600069ffffffffffffffffffff82169050919050565b610acc81610a67565b8114610ad757600080fd5b50565b610ae381610a79565b8114610aee57600080fd5b50565b610afa81610aa3565b8114610b0557600080fd5b50565b610b1181610aad565b8114610b1c57600080fd5b5056fea264697066735822122063cd81eeeca204afa704b7de9e08404e5a858654752ecbf559ad1976c9d6228764736f6c63430008000033",
  "linkReferences": {},
  "deployedLinkReferences": {}
}