{
  "_format": "hh-sol-artifact-1",
  "contractName": "PLAINToken",
  "sourceName": "contracts/PLAINToken.sol",
  "abi": [
    {
      "inputs": [],
      "stateMutability": "nonpayable",
      "type": "constructor"
    },
    {
      "anonymous": false,
      "inputs": [
        {
          "indexed": true,
          "internalType": "address",
          "name": "owner",
          "type": "address"
        },
        {
          "indexed": true,
          "internalType": "address",
          "name": "spender",
          "type": "address"
        },
        {
          "indexed": false,
          "internalType": "uint256",
          "name": "value",
          "type": "uint256"
        }
      ],
      "name": "Approval",
      "type": "event"
    },
    {
      "anonymous": false,
      "inputs": [
        {
          "indexed": true,
          "internalType": "address",
          "name": "from",
          "type": "address"
        },
        {
          "indexed": true,
          "internalType": "address",
          "name": "to",
          "type": "address"
        },
        {
          "indexed": false,
          "internalType": "uint256",
          "name": "value",
          "type": "uint256"
        }
      ],
      "name": "Transfer",
      "type": "event"
    },
    {
      "inputs": [],
      "name": "DECIMALS",
      "outputs": [
        {
          "internalType": "uint8",
          "name": "",
          "type": "uint8"
        }
      ],
      "stateMutability": "view",
      "type": "function"
    },
    {
      "inputs": [],
      "name": "NAME",
      "outputs": [
        {
          "internalType": "string",
          "name": "",
          "type": "string"
        }
      ],
      "stateMutability": "view",
      "type": "function"
    },
    {
      "inputs": [],
      "name": "SYMBOL",
      "outputs": [
        {
          "internalType": "string",
          "name": "",
          "type": "string"
        }
      ],
      "stateMutability": "view",
      "type": "function"
    },
    {
      "inputs": [
        {
          "internalType": "address",
          "name": "owner",
          "type": "address"
        },
        {
          "internalType": "address",
          "name": "delegate",
          "type": "address"
        }
      ],
      "name": "allowance",
      "outputs": [
        {
          "internalType": "uint256",
          "name": "",
          "type": "uint256"
        }
      ],
      "stateMutability": "view",
      "type": "function"
    },
    {
      "inputs": [
        {
          "internalType": "address",
          "name": "delegate",
          "type": "address"
        },
        {
          "internalType": "uint256",
          "name": "numTokens",
          "type": "uint256"
        }
      ],
      "name": "approve",
      "outputs": [
        {
          "internalType": "bool",
          "name": "",
          "type": "bool"
        }
      ],
      "stateMutability": "nonpayable",
      "type": "function"
    },
    {
      "inputs": [
        {
          "internalType": "address",
          "name": "tokenOwner",
          "type": "address"
        }
      ],
      "name": "balanceOf",
      "outputs": [
        {
          "internalType": "uint256",
          "name": "",
          "type": "uint256"
        }
      ],
      "stateMutability": "view",
      "type": "function"
    },
    {
      "inputs": [
        {
          "internalType": "address",
          "name": "",
          "type": "address"
        }
      ],
      "name": "balances",
      "outputs": [
        {
          "internalType": "uint256",
          "name": "",
          "type": "uint256"
        }
      ],
      "stateMutability": "view",
      "type": "function"
    },
    {
      "inputs": [],
      "name": "decimals",
      "outputs": [
        {
          "internalType": "uint8",
          "name": "",
          "type": "uint8"
        }
      ],
      "stateMutability": "pure",
      "type": "function"
    },
    {
      "inputs": [],
      "name": "name",
      "outputs": [
        {
          "internalType": "string",
          "name": "",
          "type": "string"
        }
      ],
      "stateMutability": "pure",
      "type": "function"
    },
    {
      "inputs": [],
      "name": "symbol",
      "outputs": [
        {
          "internalType": "string",
          "name": "",
          "type": "string"
        }
      ],
      "stateMutability": "pure",
      "type": "function"
    },
    {
      "inputs": [],
      "name": "totalSupply",
      "outputs": [
        {
          "internalType": "uint256",
          "name": "",
          "type": "uint256"
        }
      ],
      "stateMutability": "view",
      "type": "function"
    },
    {
      "inputs": [],
      "name": "totalSupply_",
      "outputs": [
        {
          "internalType": "uint256",
          "name": "",
          "type": "uint256"
        }
      ],
      "stateMutability": "view",
      "type": "function"
    },
    {
      "inputs": [
        {
          "internalType": "address",
          "name": "receiver",
          "type": "address"
        },
        {
          "internalType": "uint256",
          "name": "numTokens",
          "type": "uint256"
        }
      ],
      "name": "transfer",
      "outputs": [
        {
          "internalType": "bool",
          "name": "",
          "type": "bool"
        }
      ],
      "stateMutability": "nonpayable",
      "type": "function"
    },
    {
      "inputs": [
        {
          "internalType": "address",
          "name": "owner",
          "type": "address"
        },
        {
          "internalType": "address",
          "name": "buyer",
          "type": "address"
        },
        {
          "internalType": "uint256",
          "name": "numTokens",
          "type": "uint256"
        }
      ],
      "name": "transferFrom",
      "outputs": [
        {
          "internalType": "bool",
          "name": "",
          "type": "bool"
        }
      ],
      "stateMutability": "nonpayable",
      "type": "function"
    }
  ],
  "bytecode": "0x60806040526012600a620000149190620000dc565b6305f5e10062000025919062000219565b6002553480156200003557600080fd5b506002546000803373ffffffffffffffffffffffffffffffffffffffff1673ffffffffffffffffffffffffffffffffffffffff16815260200190815260200160002081905550620002cd565b6000808291508390505b6001851115620000d357808604811115620000ab57620000aa62000291565b5b6001851615620000bb5780820291505b8081029050620000cb85620002c0565b94506200008b565b94509492505050565b6000620000e9826200027a565b9150620000f68362000284565b9250620001257fffffffffffffffffffffffffffffffffffffffffffffffffffffffffffffffff84846200012d565b905092915050565b6000826200013f576001905062000212565b816200014f576000905062000212565b81600181146200016857600281146200017357620001a9565b600191505062000212565b60ff84111562000188576200018762000291565b5b8360020a915084821115620001a257620001a162000291565b5b5062000212565b5060208310610133831016604e8410600b8410161715620001e35782820a905083811115620001dd57620001dc62000291565b5b62000212565b620001f2848484600162000081565b925090508184048111156200020c576200020b62000291565b5b81810290505b9392505050565b600062000226826200027a565b915062000233836200027a565b9250817fffffffffffffffffffffffffffffffffffffffffffffffffffffffffffffffff04831182151516156200026f576200026e62000291565b5b828202905092915050565b6000819050919050565b600060ff82169050919050565b7f4e487b7100000000000000000000000000000000000000000000000000000000600052601160045260246000fd5b60008160011c9050919050565b61111580620002dd6000396000f3fe608060405234801561001057600080fd5b50600436106100ea5760003560e01c8063324536eb1161008c578063a3f4df7e11610066578063a3f4df7e14610263578063a9059cbb14610281578063dd62ed3e146102b1578063f76f8d78146102e1576100ea565b8063324536eb146101f757806370a082311461021557806395d89b4114610245576100ea565b806323b872dd116100c857806323b872dd1461015b57806327e235e31461018b5780632e0f2625146101bb578063313ce567146101d9576100ea565b806306fdde03146100ef578063095ea7b31461010d57806318160ddd1461013d575b600080fd5b6100f76102ff565b6040516101049190610e8b565b60405180910390f35b61012760048036038101906101229190610c9c565b61033c565b6040516101349190610e70565b60405180910390f35b61014561042e565b6040516101529190610f0d565b60405180910390f35b61017560048036038101906101709190610c4d565b610438565b6040516101829190610e70565b60405180910390f35b6101a560048036038101906101a09190610be8565b61080a565b6040516101b29190610f0d565b60405180910390f35b6101c3610822565b6040516101d09190610f28565b60405180910390f35b6101e1610827565b6040516101ee9190610f28565b60405180910390f35b6101ff610830565b60405161020c9190610f0d565b60405180910390f35b61022f600480360381019061022a9190610be8565b610836565b60405161023c9190610f0d565b60405180910390f35b61024d61087e565b60405161025a9190610e8b565b60405180910390f35b61026b6108bb565b6040516102789190610e8b565b60405180910390f35b61029b60048036038101906102969190610c9c565b6108f4565b6040516102a89190610e70565b60405180910390f35b6102cb60048036038101906102c69190610c11565b610afe565b6040516102d89190610f0d565b60405180910390f35b6102e9610b85565b6040516102f69190610e8b565b60405180910390f35b60606040518060400160405280600a81526020017f504c41494e546f6b656e00000000000000000000000000000000000000000000815250905090565b600081600160003373ffffffffffffffffffffffffffffffffffffffff1673ffffffffffffffffffffffffffffffffffffffff16815260200190815260200160002060008573ffffffffffffffffffffffffffffffffffffffff1673ffffffffffffffffffffffffffffffffffffffff168152602001908152602001600020819055508273ffffffffffffffffffffffffffffffffffffffff163373ffffffffffffffffffffffffffffffffffffffff167f8c5be1e5ebec7d5bd14f71427d1e84f3dd0314c0f7b2291e5b200ac8c7c3b9258460405161041c9190610f0d565b60405180910390a36001905092915050565b6000600254905090565b60008060008573ffffffffffffffffffffffffffffffffffffffff1673ffffffffffffffffffffffffffffffffffffffff168152602001908152602001600020548211156104bb576040517f08c379a00000000000000000000000000000000000000000000000000000000081526004016104b290610ead565b60405180910390fd5b600160008573ffffffffffffffffffffffffffffffffffffffff1673ffffffffffffffffffffffffffffffffffffffff16815260200190815260200160002060003373ffffffffffffffffffffffffffffffffffffffff1673ffffffffffffffffffffffffffffffffffffffff1681526020019081526020016000205482111561057a576040517f08c379a000000000000000000000000000000000000000000000000000000000815260040161057190610eed565b60405180910390fd5b816000808673ffffffffffffffffffffffffffffffffffffffff1673ffffffffffffffffffffffffffffffffffffffff168152602001908152602001600020546105c49190610fb5565b6000808673ffffffffffffffffffffffffffffffffffffffff1673ffffffffffffffffffffffffffffffffffffffff1681526020019081526020016000208190555081600160008673ffffffffffffffffffffffffffffffffffffffff1673ffffffffffffffffffffffffffffffffffffffff16815260200190815260200160002060003373ffffffffffffffffffffffffffffffffffffffff1673ffffffffffffffffffffffffffffffffffffffff1681526020019081526020016000205461068e9190610fb5565b600160008673ffffffffffffffffffffffffffffffffffffffff1673ffffffffffffffffffffffffffffffffffffffff16815260200190815260200160002060003373ffffffffffffffffffffffffffffffffffffffff1673ffffffffffffffffffffffffffffffffffffffff16815260200190815260200160002081905550816000808573ffffffffffffffffffffffffffffffffffffffff1673ffffffffffffffffffffffffffffffffffffffff168152602001908152602001600020546107589190610f5f565b6000808573ffffffffffffffffffffffffffffffffffffffff1673ffffffffffffffffffffffffffffffffffffffff168152602001908152602001600020819055508273ffffffffffffffffffffffffffffffffffffffff168473ffffffffffffffffffffffffffffffffffffffff167fddf252ad1be2c89b69c2b068fc378daa952ba7f163c4a11628f55a4df523b3ef846040516107f79190610f0d565b60405180910390a3600190509392505050565b60006020528060005260406000206000915090505481565b601281565b60006012905090565b60025481565b60008060008373ffffffffffffffffffffffffffffffffffffffff1673ffffffffffffffffffffffffffffffffffffffff168152602001908152602001600020549050919050565b60606040518060400160405280600581526020017f504c41494e000000000000000000000000000000000000000000000000000000815250905090565b6040518060400160405280600a81526020017f504c41494e546f6b656e0000000000000000000000000000000000000000000081525081565b60008060003373ffffffffffffffffffffffffffffffffffffffff1673ffffffffffffffffffffffffffffffffffffffff16815260200190815260200160002054821115610977576040517f08c379a000000000000000000000000000000000000000000000000000000000815260040161096e90610ecd565b60405180910390fd5b816000803373ffffffffffffffffffffffffffffffffffffffff1673ffffffffffffffffffffffffffffffffffffffff168152602001908152602001600020546109c19190610fb5565b6000803373ffffffffffffffffffffffffffffffffffffffff1673ffffffffffffffffffffffffffffffffffffffff16815260200190815260200160002081905550816000808573ffffffffffffffffffffffffffffffffffffffff1673ffffffffffffffffffffffffffffffffffffffff16815260200190815260200160002054610a4d9190610f5f565b6000808573ffffffffffffffffffffffffffffffffffffffff1673ffffffffffffffffffffffffffffffffffffffff168152602001908152602001600020819055508273ffffffffffffffffffffffffffffffffffffffff163373ffffffffffffffffffffffffffffffffffffffff167fddf252ad1be2c89b69c2b068fc378daa952ba7f163c4a11628f55a4df523b3ef84604051610aec9190610f0d565b60405180910390a36001905092915050565b6000600160008473ffffffffffffffffffffffffffffffffffffffff1673ffffffffffffffffffffffffffffffffffffffff16815260200190815260200160002060008373ffffffffffffffffffffffffffffffffffffffff1673ffffffffffffffffffffffffffffffffffffffff16815260200190815260200160002054905092915050565b6040518060400160405280600581526020017f504c41494e00000000000000000000000000000000000000000000000000000081525081565b600081359050610bcd816110b1565b92915050565b600081359050610be2816110c8565b92915050565b600060208284031215610bfa57600080fd5b6000610c0884828501610bbe565b91505092915050565b60008060408385031215610c2457600080fd5b6000610c3285828601610bbe565b9250506020610c4385828601610bbe565b9150509250929050565b600080600060608486031215610c6257600080fd5b6000610c7086828701610bbe565b9350506020610c8186828701610bbe565b9250506040610c9286828701610bd3565b9150509250925092565b60008060408385031215610caf57600080fd5b6000610cbd85828601610bbe565b9250506020610cce85828601610bd3565b9150509250929050565b610ce181610ffb565b82525050565b6000610cf282610f43565b610cfc8185610f4e565b9350610d0c81856020860161103e565b610d15816110a0565b840191505092915050565b6000610d2d602e83610f4e565b91507f43616e2774207472616e73666572206d6f726520746f6b656e73207468616e2060008301527f746865206f776e6572206f776e730000000000000000000000000000000000006020830152604082019050919050565b6000610d93602c83610f4e565b91507f43616e6e6f74207472616e73666572206d6f726520746f6b656e73207468616e60008301527f2073656e646572206f776e7300000000000000000000000000000000000000006020830152604082019050919050565b6000610df9603283610f4e565b91507f43616e2774207472616e73666572206d6f726520746f6b656e73207468616e2060008301527f7065726d6974746564206279206f776e657200000000000000000000000000006020830152604082019050919050565b610e5b81611027565b82525050565b610e6a81611031565b82525050565b6000602082019050610e856000830184610cd8565b92915050565b60006020820190508181036000830152610ea58184610ce7565b905092915050565b60006020820190508181036000830152610ec681610d20565b9050919050565b60006020820190508181036000830152610ee681610d86565b9050919050565b60006020820190508181036000830152610f0681610dec565b9050919050565b6000602082019050610f226000830184610e52565b92915050565b6000602082019050610f3d6000830184610e61565b92915050565b600081519050919050565b600082825260208201905092915050565b6000610f6a82611027565b9150610f7583611027565b9250827fffffffffffffffffffffffffffffffffffffffffffffffffffffffffffffffff03821115610faa57610fa9611071565b5b828201905092915050565b6000610fc082611027565b9150610fcb83611027565b925082821015610fde57610fdd611071565b5b828203905092915050565b6000610ff482611007565b9050919050565b60008115159050919050565b600073ffffffffffffffffffffffffffffffffffffffff82169050919050565b6000819050919050565b600060ff82169050919050565b60005b8381101561105c578082015181840152602081019050611041565b8381111561106b576000848401525b50505050565b7f4e487b7100000000000000000000000000000000000000000000000000000000600052601160045260246000fd5b6000601f19601f8301169050919050565b6110ba81610fe9565b81146110c557600080fd5b50565b6110d181611027565b81146110dc57600080fd5b5056fea26469706673582212205efd3f311882c29a885114350b519821cd36a731e8d23f13890638073bbf1ceb64736f6c63430008000033",
  "linkReferences": {},
  "deployedLinkReferences": {}
}