{
  "_format": "hh-sol-artifact-1",
  "contractName": "plainLang",
  "sourceName": "contracts/plainLang.sol",
  "abi": [
    {
      "inputs": [
        {
          "internalType": "address",
          "name": "_plainToken",
          "type": "address"
        },
        {
          "internalType": "address",
          "name": "_priceContract",
          "type": "address"
        }
      ],
      "stateMutability": "nonpayable",
      "type": "constructor"
    },
    {
      "anonymous": false,
      "inputs": [
        {
          "indexed": false,
          "internalType": "uint256",
          "name": "agreementNumber",
          "type": "uint256"
        },
        {
          "indexed": false,
          "internalType": "address",
          "name": "originator",
          "type": "address"
        },
        {
          "indexed": false,
          "internalType": "address",
          "name": "token",
          "type": "address"
        },
        {
          "indexed": false,
          "internalType": "uint256",
          "name": "close_date",
          "type": "uint256"
        },
        {
          "indexed": false,
          "internalType": "uint256",
          "name": "price_at_agreemnet",
          "type": "uint256"
        },
        {
          "indexed": false,
          "internalType": "uint256",
          "name": "multiplier",
          "type": "uint256"
        },
        {
          "indexed": false,
          "internalType": "uint256",
          "name": "premium",
          "type": "uint256"
        },
        {
          "indexed": false,
          "internalType": "uint256",
          "name": "amountStaked",
          "type": "uint256"
        }
      ],
      "name": "AgreementCreated",
      "type": "event"
    },
    {
      "anonymous": false,
      "inputs": [
        {
          "indexed": false,
          "internalType": "uint256",
          "name": "agreementNumber",
          "type": "uint256"
        },
        {
          "indexed": false,
          "internalType": "address",
          "name": "counterparty",
          "type": "address"
        }
      ],
      "name": "CounterpartyAccepted",
      "type": "event"
    },
    {
      "anonymous": false,
      "inputs": [
        {
          "indexed": true,
          "internalType": "address",
          "name": "previousOwner",
          "type": "address"
        },
        {
          "indexed": true,
          "internalType": "address",
          "name": "newOwner",
          "type": "address"
        }
      ],
      "name": "OwnershipTransferred",
      "type": "event"
    },
    {
      "inputs": [
        {
          "internalType": "address",
          "name": "token",
          "type": "address"
        }
      ],
      "name": "addToken",
      "outputs": [],
      "stateMutability": "nonpayable",
      "type": "function"
    },
    {
      "inputs": [
        {
          "internalType": "address",
          "name": "",
          "type": "address"
        }
      ],
      "name": "agreement_tokens",
      "outputs": [
        {
          "internalType": "bool",
          "name": "",
          "type": "bool"
        }
      ],
      "stateMutability": "view",
      "type": "function"
    },
    {
      "inputs": [
        {
          "internalType": "uint256",
          "name": "agreement_number",
          "type": "uint256"
        }
      ],
      "name": "closeAgreement",
      "outputs": [],
      "stateMutability": "nonpayable",
      "type": "function"
    },
    {
      "inputs": [
        {
          "internalType": "address",
          "name": "_token",
          "type": "address"
        },
        {
          "internalType": "uint256",
          "name": "_amount_staked",
          "type": "uint256"
        },
        {
          "internalType": "uint256",
          "name": "_premium",
          "type": "uint256"
        },
        {
          "internalType": "uint256",
          "name": "length",
          "type": "uint256"
        },
        {
          "internalType": "address",
          "name": "_requiredParty",
          "type": "address"
        }
      ],
      "name": "createAgreement",
      "outputs": [],
      "stateMutability": "nonpayable",
      "type": "function"
    },
    {
      "inputs": [],
      "name": "fee",
      "outputs": [
        {
          "internalType": "uint256",
          "name": "",
          "type": "uint256"
        }
      ],
      "stateMutability": "view",
      "type": "function"
    },
    {
      "inputs": [],
      "name": "owner",
      "outputs": [
        {
          "internalType": "address",
          "name": "",
          "type": "address"
        }
      ],
      "stateMutability": "view",
      "type": "function"
    },
    {
      "inputs": [
        {
          "internalType": "address",
          "name": "token",
          "type": "address"
        }
      ],
      "name": "removeToken",
      "outputs": [],
      "stateMutability": "nonpayable",
      "type": "function"
    },
    {
      "inputs": [],
      "name": "renounceOwnership",
      "outputs": [],
      "stateMutability": "nonpayable",
      "type": "function"
    },
    {
      "inputs": [
        {
          "internalType": "uint256",
          "name": "_PLAIN_fee",
          "type": "uint256"
        }
      ],
      "name": "setFee",
      "outputs": [],
      "stateMutability": "nonpayable",
      "type": "function"
    },
    {
      "inputs": [
        {
          "internalType": "address",
          "name": "newOwner",
          "type": "address"
        }
      ],
      "name": "transferOwnership",
      "outputs": [],
      "stateMutability": "nonpayable",
      "type": "function"
    },
    {
      "inputs": [
        {
          "internalType": "address",
          "name": "plain",
          "type": "address"
        }
      ],
      "name": "upgradePLAIN",
      "outputs": [],
      "stateMutability": "nonpayable",
      "type": "function"
    },
    {
      "inputs": [
        {
          "internalType": "address",
          "name": "pc",
          "type": "address"
        }
      ],
      "name": "upgradePriceConsumer",
      "outputs": [],
      "stateMutability": "nonpayable",
      "type": "function"
    }
  ],
  "bytecode": "0x6080604052670de0b6b3a7640000600155670de0b6b3a76400006001620000279190620002a5565b6003556000600460006101000a81548173ffffffffffffffffffffffffffffffffffffffff021916908373ffffffffffffffffffffffffffffffffffffffff1602179055503480156200007957600080fd5b50604051620023953803806200239583398181016040528101906200009f919062000264565b6000620000b16200024560201b60201c565b9050806000806101000a81548173ffffffffffffffffffffffffffffffffffffffff021916908373ffffffffffffffffffffffffffffffffffffffff1602179055508073ffffffffffffffffffffffffffffffffffffffff16600073ffffffffffffffffffffffffffffffffffffffff167f8be0079c531659141344cd1fd0a4f28419497f9722a3daafe3b4186f6b6457e060405160405180910390a35060016002600073a36085f69e2889c224210f603d836748e7dc008873ffffffffffffffffffffffffffffffffffffffff1673ffffffffffffffffffffffffffffffffffffffff16815260200190815260200160002060006101000a81548160ff02191690831515021790555081600760006101000a81548173ffffffffffffffffffffffffffffffffffffffff021916908373ffffffffffffffffffffffffffffffffffffffff16021790555080600660006101000a81548173ffffffffffffffffffffffffffffffffffffffff021916908373ffffffffffffffffffffffffffffffffffffffff16021790555050506200038d565b600033905090565b6000815190506200025e8162000373565b92915050565b600080604083850312156200027857600080fd5b600062000288858286016200024d565b92505060206200029b858286016200024d565b9150509250929050565b6000620002b2826200033a565b9150620002bf836200033a565b9250817fffffffffffffffffffffffffffffffffffffffffffffffffffffffffffffffff0483118215151615620002fb57620002fa62000344565b5b828202905092915050565b600062000313826200031a565b9050919050565b600073ffffffffffffffffffffffffffffffffffffffff82169050919050565b6000819050919050565b7f4e487b7100000000000000000000000000000000000000000000000000000000600052601160045260246000fd5b6200037e8162000306565b81146200038a57600080fd5b50565b611ff8806200039d6000396000f3fe608060405234801561001057600080fd5b50600436106100b45760003560e01c80638da5cb5b116100715780638da5cb5b14610163578063c738670414610181578063d48bfca71461019d578063ddca3f43146101b9578063e501dde2146101d7578063f2fde38b146101f3576100b4565b8063035d9807146100b95780630bbae74a146100e95780634ebd01d8146101055780635fa7b5841461012157806369fe0e2d1461013d578063715018a614610159575b600080fd5b6100d360048036038101906100ce919061197f565b61020f565b6040516100e09190611cda565b60405180910390f35b61010360048036038101906100fe91906119a8565b61022f565b005b61011f600480360381019061011a919061197f565b610690565b005b61013b6004803603810190610136919061197f565b610750565b005b61015760048036038101906101529190611a71565b610827565b005b6101616108ad565b005b61016b6109e7565b6040516101789190611c5f565b60405180910390f35b61019b60048036038101906101969190611a71565b610a10565b005b6101b760048036038101906101b2919061197f565b610f73565b005b6101c161104a565b6040516101ce9190611d75565b60405180910390f35b6101f160048036038101906101ec919061197f565b611050565b005b61020d6004803603810190610208919061197f565b611110565b005b60026020528060005260406000206000915054906101000a900460ff1681565b610237611870565b6000600660009054906101000a900473ffffffffffffffffffffffffffffffffffffffff1690508673ffffffffffffffffffffffffffffffffffffffff166323b872dd3330896040518463ffffffff1660e01b815260040161029b93929190611c7a565b602060405180830381600087803b1580156102b557600080fd5b505af11580156102c9573d6000803e3d6000fd5b505050506040513d601f19601f820116820180604052508101906102ed9190611a1f565b5086826060019073ffffffffffffffffffffffffffffffffffffffff16908173ffffffffffffffffffffffffffffffffffffffff16815250508073ffffffffffffffffffffffffffffffffffffffff1663d02641a0886040518263ffffffff1660e01b815260040161035f9190611c5f565b602060405180830381600087803b15801561037957600080fd5b505af115801561038d573d6000803e3d6000fd5b505050506040513d601f19601f820116820180604052508101906103b19190611a48565b8260c00181815250506103c26112b9565b82608001818152505033826000019073ffffffffffffffffffffffffffffffffffffffff16908173ffffffffffffffffffffffffffffffffffffffff168152505082826040019073ffffffffffffffffffffffffffffffffffffffff16908173ffffffffffffffffffffffffffffffffffffffff16815250506000826020019073ffffffffffffffffffffffffffffffffffffffff16908173ffffffffffffffffffffffffffffffffffffffff168152505083620151806104839190611df7565b4261048e9190611da1565b8260a0018181525050858260e0018181525050858261014001818152505084826101000181815250506000826101600190151590811515815250506104d2336112c1565b5060058290806001815401808255809150506001900390600052602060002090600c020160009091909190915060008201518160000160006101000a81548173ffffffffffffffffffffffffffffffffffffffff021916908373ffffffffffffffffffffffffffffffffffffffff16021790555060208201518160010160006101000a81548173ffffffffffffffffffffffffffffffffffffffff021916908373ffffffffffffffffffffffffffffffffffffffff16021790555060408201518160020160006101000a81548173ffffffffffffffffffffffffffffffffffffffff021916908373ffffffffffffffffffffffffffffffffffffffff16021790555060608201518160030160006101000a81548173ffffffffffffffffffffffffffffffffffffffff021916908373ffffffffffffffffffffffffffffffffffffffff1602179055506080820151816004015560a0820151816005015560c0820151816006015560e082015181600701556101008201518160080155610120820151816009015561014082015181600a015561016082015181600b0160006101000a81548160ff021916908315150217905550505050505050505050565b610698611380565b73ffffffffffffffffffffffffffffffffffffffff166106b66109e7565b73ffffffffffffffffffffffffffffffffffffffff161461070c576040517f08c379a000000000000000000000000000000000000000000000000000000000815260040161070390611d15565b60405180910390fd5b80600660006101000a81548173ffffffffffffffffffffffffffffffffffffffff021916908373ffffffffffffffffffffffffffffffffffffffff16021790555050565b610758611380565b73ffffffffffffffffffffffffffffffffffffffff166107766109e7565b73ffffffffffffffffffffffffffffffffffffffff16146107cc576040517f08c379a00000000000000000000000000000000000000000000000000000000081526004016107c390611d15565b60405180910390fd5b6000600260008373ffffffffffffffffffffffffffffffffffffffff1673ffffffffffffffffffffffffffffffffffffffff16815260200190815260200160002060006101000a81548160ff02191690831515021790555050565b61082f611380565b73ffffffffffffffffffffffffffffffffffffffff1661084d6109e7565b73ffffffffffffffffffffffffffffffffffffffff16146108a3576040517f08c379a000000000000000000000000000000000000000000000000000000000815260040161089a90611d15565b60405180910390fd5b8060038190555050565b6108b5611380565b73ffffffffffffffffffffffffffffffffffffffff166108d36109e7565b73ffffffffffffffffffffffffffffffffffffffff1614610929576040517f08c379a000000000000000000000000000000000000000000000000000000000815260040161092090611d15565b60405180910390fd5b600073ffffffffffffffffffffffffffffffffffffffff1660008054906101000a900473ffffffffffffffffffffffffffffffffffffffff1673ffffffffffffffffffffffffffffffffffffffff167f8be0079c531659141344cd1fd0a4f28419497f9722a3daafe3b4186f6b6457e060405160405180910390a360008060006101000a81548173ffffffffffffffffffffffffffffffffffffffff021916908373ffffffffffffffffffffffffffffffffffffffff160217905550565b60008060009054906101000a900473ffffffffffffffffffffffffffffffffffffffff16905090565b600060058281548110610a4c577f4e487b7100000000000000000000000000000000000000000000000000000000600052603260045260246000fd5b90600052602060002090600c020160000160009054906101000a900473ffffffffffffffffffffffffffffffffffffffff1673ffffffffffffffffffffffffffffffffffffffff163373ffffffffffffffffffffffffffffffffffffffff161480610b4d575060058281548110610aec577f4e487b7100000000000000000000000000000000000000000000000000000000600052603260045260246000fd5b90600052602060002090600c020160010160009054906101000a900473ffffffffffffffffffffffffffffffffffffffff1673ffffffffffffffffffffffffffffffffffffffff163373ffffffffffffffffffffffffffffffffffffffff16145b610b8c576040517f08c379a0000000000000000000000000000000000000000000000000000000008152600401610b8390611d35565b60405180910390fd5b600073ffffffffffffffffffffffffffffffffffffffff1660058381548110610bde577f4e487b7100000000000000000000000000000000000000000000000000000000600052603260045260246000fd5b90600052602060002090600c020160010160009054906101000a900473ffffffffffffffffffffffffffffffffffffffff1673ffffffffffffffffffffffffffffffffffffffff161415610e915760058281548110610c66577f4e487b7100000000000000000000000000000000000000000000000000000000600052603260045260246000fd5b90600052602060002090600c020160030160009054906101000a900473ffffffffffffffffffffffffffffffffffffffff1673ffffffffffffffffffffffffffffffffffffffff1663a9059cbb60058481548110610ced577f4e487b7100000000000000000000000000000000000000000000000000000000600052603260045260246000fd5b90600052602060002090600c020160000160009054906101000a900473ffffffffffffffffffffffffffffffffffffffff1660058581548110610d59577f4e487b7100000000000000000000000000000000000000000000000000000000600052603260045260246000fd5b90600052602060002090600c0201600a01546040518363ffffffff1660e01b8152600401610d88929190611cb1565b602060405180830381600087803b158015610da257600080fd5b505af1158015610db6573d6000803e3d6000fd5b505050506040513d601f19601f82011682018060405250810190610dda9190611a1f565b50600060058381548110610e17577f4e487b7100000000000000000000000000000000000000000000000000000000600052603260045260246000fd5b90600052602060002090600c0201600a0181905550600160058381548110610e68577f4e487b7100000000000000000000000000000000000000000000000000000000600052603260045260246000fd5b90600052602060002090600c0201600b0160006101000a81548160ff0219169083151502179055505b610e9a82611388565b15610f0b57610ea882611485565b60058381548110610ee2577f4e487b7100000000000000000000000000000000000000000000000000000000600052603260045260246000fd5b90600052602060002090600c0201600901819055506000811115610f0a57610f09826116be565b5b5b600160058381548110610f47577f4e487b7100000000000000000000000000000000000000000000000000000000600052603260045260246000fd5b90600052602060002090600c0201600b0160006101000a81548160ff0219169083151502179055505050565b610f7b611380565b73ffffffffffffffffffffffffffffffffffffffff16610f996109e7565b73ffffffffffffffffffffffffffffffffffffffff1614610fef576040517f08c379a0000000000000000000000000000000000000000000000000000000008152600401610fe690611d15565b60405180910390fd5b6001600260008373ffffffffffffffffffffffffffffffffffffffff1673ffffffffffffffffffffffffffffffffffffffff16815260200190815260200160002060006101000a81548160ff02191690831515021790555050565b60015481565b611058611380565b73ffffffffffffffffffffffffffffffffffffffff166110766109e7565b73ffffffffffffffffffffffffffffffffffffffff16146110cc576040517f08c379a00000000000000000000000000000000000000000000000000000000081526004016110c390611d15565b60405180910390fd5b80600760006101000a81548173ffffffffffffffffffffffffffffffffffffffff021916908373ffffffffffffffffffffffffffffffffffffffff16021790555050565b611118611380565b73ffffffffffffffffffffffffffffffffffffffff166111366109e7565b73ffffffffffffffffffffffffffffffffffffffff161461118c576040517f08c379a000000000000000000000000000000000000000000000000000000000815260040161118390611d15565b60405180910390fd5b600073ffffffffffffffffffffffffffffffffffffffff168173ffffffffffffffffffffffffffffffffffffffff1614156111fc576040517f08c379a00000000000000000000000000000000000000000000000000000000081526004016111f390611cf5565b60405180910390fd5b8073ffffffffffffffffffffffffffffffffffffffff1660008054906101000a900473ffffffffffffffffffffffffffffffffffffffff1673ffffffffffffffffffffffffffffffffffffffff167f8be0079c531659141344cd1fd0a4f28419497f9722a3daafe3b4186f6b6457e060405160405180910390a3806000806101000a81548173ffffffffffffffffffffffffffffffffffffffff021916908373ffffffffffffffffffffffffffffffffffffffff16021790555050565b600042905090565b6000600760009054906101000a900473ffffffffffffffffffffffffffffffffffffffff1673ffffffffffffffffffffffffffffffffffffffff166323b872dd83306001546040518463ffffffff1660e01b815260040161132493929190611c7a565b602060405180830381600087803b15801561133e57600080fd5b505af1158015611352573d6000803e3d6000fd5b505050506040513d601f19601f820116820180604052508101906113769190611a1f565b5060019050919050565b600033905090565b6000600582815481106113c4577f4e487b7100000000000000000000000000000000000000000000000000000000600052603260045260246000fd5b90600052602060002090600c020160050154421015611418576040517f08c379a000000000000000000000000000000000000000000000000000000000815260040161140f90611d55565b60405180910390fd5b600160058381548110611454577f4e487b7100000000000000000000000000000000000000000000000000000000600052603260045260246000fd5b90600052602060002090600c0201600b0160006101000a81548160ff02191690831515021790555060019050919050565b600080600660009054906101000a900473ffffffffffffffffffffffffffffffffffffffff1690506000808273ffffffffffffffffffffffffffffffffffffffff1663d02641a060058781548110611506577f4e487b7100000000000000000000000000000000000000000000000000000000600052603260045260246000fd5b90600052602060002090600c020160030160009054906101000a900473ffffffffffffffffffffffffffffffffffffffff166040518263ffffffff1660e01b81526004016115549190611c5f565b602060405180830381600087803b15801561156e57600080fd5b505af1158015611582573d6000803e3d6000fd5b505050506040513d601f19601f820116820180604052508101906115a69190611a48565b9150600585815481106115e2577f4e487b7100000000000000000000000000000000000000000000000000000000600052603260045260246000fd5b90600052602060002090600c020160060154821061160357600090506116b3565b6005858154811061163d577f4e487b7100000000000000000000000000000000000000000000000000000000600052603260045260246000fd5b90600052602060002090600c02016007015460058681548110611689577f4e487b7100000000000000000000000000000000000000000000000000000000600052603260045260246000fd5b90600052602060002090600c0201600601546116a59190611df7565b826116b09190611e51565b90505b809350505050919050565b600581815481106116f8577f4e487b7100000000000000000000000000000000000000000000000000000000600052603260045260246000fd5b90600052602060002090600c020160030160009054906101000a900473ffffffffffffffffffffffffffffffffffffffff1673ffffffffffffffffffffffffffffffffffffffff1663a9059cbb6005838154811061177f577f4e487b7100000000000000000000000000000000000000000000000000000000600052603260045260246000fd5b90600052602060002090600c020160000160009054906101000a900473ffffffffffffffffffffffffffffffffffffffff16600584815481106117eb577f4e487b7100000000000000000000000000000000000000000000000000000000600052603260045260246000fd5b90600052602060002090600c0201600901546040518363ffffffff1660e01b815260040161181a929190611cb1565b602060405180830381600087803b15801561183457600080fd5b505af1158015611848573d6000803e3d6000fd5b505050506040513d601f19601f8201168201806040525081019061186c9190611a1f565b5050565b604051806101800160405280600073ffffffffffffffffffffffffffffffffffffffff168152602001600073ffffffffffffffffffffffffffffffffffffffff168152602001600073ffffffffffffffffffffffffffffffffffffffff168152602001600073ffffffffffffffffffffffffffffffffffffffff168152602001600081526020016000815260200160008152602001600081526020016000815260200160008152602001600081526020016000151581525090565b60008135905061193a81611f66565b92915050565b60008151905061194f81611f7d565b92915050565b60008151905061196481611f94565b92915050565b60008135905061197981611fab565b92915050565b60006020828403121561199157600080fd5b600061199f8482850161192b565b91505092915050565b600080600080600060a086880312156119c057600080fd5b60006119ce8882890161192b565b95505060206119df8882890161196a565b94505060406119f08882890161196a565b9350506060611a018882890161196a565b9250506080611a128882890161192b565b9150509295509295909350565b600060208284031215611a3157600080fd5b6000611a3f84828501611940565b91505092915050565b600060208284031215611a5a57600080fd5b6000611a6884828501611955565b91505092915050565b600060208284031215611a8357600080fd5b6000611a918482850161196a565b91505092915050565b611aa381611ee5565b82525050565b611ab281611ef7565b82525050565b6000611ac5602683611d90565b91507f4f776e61626c653a206e6577206f776e657220697320746865207a65726f206160008301527f64647265737300000000000000000000000000000000000000000000000000006020830152604082019050919050565b6000611b2b602083611d90565b91507f4f776e61626c653a2063616c6c6572206973206e6f7420746865206f776e65726000830152602082019050919050565b6000611b6b604983611d90565b91507f41677265656d656e742063616e206f6e6c7920626520636c6f7365642062792060008301527f7468652061677265656d656e74206f726967696e61746f72206f7220636f756e60208301527f74657220706172747900000000000000000000000000000000000000000000006040830152606082019050919050565b6000611bf7602d83611d90565b91507f41677265656d656e74206973206e6f742079657420636c6f7365642e2054727960008301527f20616761696e206c617465722e000000000000000000000000000000000000006020830152604082019050919050565b611c5981611f2d565b82525050565b6000602082019050611c746000830184611a9a565b92915050565b6000606082019050611c8f6000830186611a9a565b611c9c6020830185611a9a565b611ca96040830184611c50565b949350505050565b6000604082019050611cc66000830185611a9a565b611cd36020830184611c50565b9392505050565b6000602082019050611cef6000830184611aa9565b92915050565b60006020820190508181036000830152611d0e81611ab8565b9050919050565b60006020820190508181036000830152611d2e81611b1e565b9050919050565b60006020820190508181036000830152611d4e81611b5e565b9050919050565b60006020820190508181036000830152611d6e81611bea565b9050919050565b6000602082019050611d8a6000830184611c50565b92915050565b600082825260208201905092915050565b6000611dac82611f2d565b9150611db783611f2d565b9250827fffffffffffffffffffffffffffffffffffffffffffffffffffffffffffffffff03821115611dec57611deb611f37565b5b828201905092915050565b6000611e0282611f2d565b9150611e0d83611f2d565b9250817fffffffffffffffffffffffffffffffffffffffffffffffffffffffffffffffff0483118215151615611e4657611e45611f37565b5b828202905092915050565b6000611e5c82611f03565b9150611e6783611f03565b9250827f800000000000000000000000000000000000000000000000000000000000000001821260008412151615611ea257611ea1611f37565b5b827f7fffffffffffffffffffffffffffffffffffffffffffffffffffffffffffffff018213600084121615611eda57611ed9611f37565b5b828203905092915050565b6000611ef082611f0d565b9050919050565b60008115159050919050565b6000819050919050565b600073ffffffffffffffffffffffffffffffffffffffff82169050919050565b6000819050919050565b7f4e487b7100000000000000000000000000000000000000000000000000000000600052601160045260246000fd5b611f6f81611ee5565b8114611f7a57600080fd5b50565b611f8681611ef7565b8114611f9157600080fd5b50565b611f9d81611f03565b8114611fa857600080fd5b50565b611fb481611f2d565b8114611fbf57600080fd5b5056fea26469706673582212200b2bf1b057d24535d32388dae8c56a10d7e183a98279de9d0c0f06162f57f61d64736f6c63430008000033",
  "linkReferences": {},
  "deployedLinkReferences": {}
}