{
  "_format": "hh-sol-artifact-1",
  "contractName": "PlainLang",
  "sourceName": "contracts/PlainLang.sol",
  "abi": [
    {
      "inputs": [
        {
          "internalType": "address",
          "name": "_plainToken",
          "type": "address"
        },
        {
          "internalType": "address",
          "name": "_priceContract",
          "type": "address"
        }
      ],
      "stateMutability": "nonpayable",
      "type": "constructor"
    },
    {
      "anonymous": false,
      "inputs": [
        {
          "indexed": false,
          "internalType": "uint256",
          "name": "agreementNumber",
          "type": "uint256"
        },
        {
          "indexed": false,
          "internalType": "uint256",
          "name": "amountPaid",
          "type": "uint256"
        }
      ],
      "name": "AgreementClosed",
      "type": "event"
    },
    {
      "anonymous": false,
      "inputs": [
        {
          "indexed": false,
          "internalType": "uint256",
          "name": "agreementNumber",
          "type": "uint256"
        },
        {
          "indexed": false,
          "internalType": "address",
          "name": "originator",
          "type": "address"
        },
        {
          "indexed": false,
          "internalType": "address",
          "name": "token",
          "type": "address"
        },
        {
          "indexed": false,
          "internalType": "uint256",
          "name": "close_date",
          "type": "uint256"
        },
        {
          "indexed": false,
          "internalType": "uint256",
          "name": "price_at_agreemnet",
          "type": "uint256"
        },
        {
          "indexed": false,
          "internalType": "uint256",
          "name": "multiplier",
          "type": "uint256"
        },
        {
          "indexed": false,
          "internalType": "uint256",
          "name": "premium",
          "type": "uint256"
        },
        {
          "indexed": false,
          "internalType": "uint256",
          "name": "amountStaked",
          "type": "uint256"
        }
      ],
      "name": "AgreementCreated",
      "type": "event"
    },
    {
      "anonymous": false,
      "inputs": [
        {
          "indexed": false,
          "internalType": "uint256",
          "name": "agreementNumber",
          "type": "uint256"
        },
        {
          "indexed": false,
          "internalType": "address",
          "name": "counterparty",
          "type": "address"
        }
      ],
      "name": "CounterpartyAccepted",
      "type": "event"
    },
    {
      "anonymous": false,
      "inputs": [
        {
          "indexed": true,
          "internalType": "address",
          "name": "previousOwner",
          "type": "address"
        },
        {
          "indexed": true,
          "internalType": "address",
          "name": "newOwner",
          "type": "address"
        }
      ],
      "name": "OwnershipTransferred",
      "type": "event"
    },
    {
      "inputs": [
        {
          "internalType": "uint256",
          "name": "agreement_number",
          "type": "uint256"
        }
      ],
      "name": "acceptPremium",
      "outputs": [],
      "stateMutability": "nonpayable",
      "type": "function"
    },
    {
      "inputs": [
        {
          "internalType": "address",
          "name": "_token",
          "type": "address"
        }
      ],
      "name": "addToken",
      "outputs": [],
      "stateMutability": "nonpayable",
      "type": "function"
    },
    {
      "inputs": [
        {
          "internalType": "address",
          "name": "",
          "type": "address"
        }
      ],
      "name": "agreement_tokens",
      "outputs": [
        {
          "internalType": "bool",
          "name": "",
          "type": "bool"
        }
      ],
      "stateMutability": "view",
      "type": "function"
    },
    {
      "inputs": [
        {
          "internalType": "uint256",
          "name": "",
          "type": "uint256"
        }
      ],
      "name": "agreements",
      "outputs": [
        {
          "internalType": "address",
          "name": "originator",
          "type": "address"
        },
        {
          "internalType": "address",
          "name": "counterparty",
          "type": "address"
        },
        {
          "internalType": "address",
          "name": "requiredParty",
          "type": "address"
        },
        {
          "internalType": "address",
          "name": "token",
          "type": "address"
        },
        {
          "internalType": "uint256",
          "name": "agreement_date",
          "type": "uint256"
        },
        {
          "internalType": "uint256",
          "name": "close_date",
          "type": "uint256"
        },
        {
          "internalType": "uint256",
          "name": "price_at_agreement",
          "type": "uint256"
        },
        {
          "internalType": "uint256",
          "name": "multiplier",
          "type": "uint256"
        },
        {
          "internalType": "uint256",
          "name": "premium",
          "type": "uint256"
        },
        {
          "internalType": "uint256",
          "name": "payment",
          "type": "uint256"
        },
        {
          "internalType": "uint256",
          "name": "amountStaked",
          "type": "uint256"
        },
        {
          "internalType": "bool",
          "name": "closed",
          "type": "bool"
        }
      ],
      "stateMutability": "view",
      "type": "function"
    },
    {
      "inputs": [
        {
          "internalType": "uint256",
          "name": "agreement",
          "type": "uint256"
        }
      ],
      "name": "amountStaked",
      "outputs": [
        {
          "internalType": "uint256",
          "name": "",
          "type": "uint256"
        }
      ],
      "stateMutability": "view",
      "type": "function"
    },
    {
      "inputs": [
        {
          "internalType": "uint256",
          "name": "agreement_number",
          "type": "uint256"
        }
      ],
      "name": "closeAgreement",
      "outputs": [],
      "stateMutability": "nonpayable",
      "type": "function"
    },
    {
      "inputs": [
        {
          "internalType": "uint256",
          "name": "agreement",
          "type": "uint256"
        }
      ],
      "name": "close_date",
      "outputs": [
        {
          "internalType": "uint256",
          "name": "",
          "type": "uint256"
        }
      ],
      "stateMutability": "view",
      "type": "function"
    },
    {
      "inputs": [
        {
          "internalType": "address",
          "name": "_token",
          "type": "address"
        },
        {
          "internalType": "uint256",
          "name": "_amount_staked",
          "type": "uint256"
        },
        {
          "internalType": "uint256",
          "name": "_premium",
          "type": "uint256"
        },
        {
          "internalType": "uint256",
          "name": "length",
          "type": "uint256"
        },
        {
          "internalType": "address",
          "name": "_requiredParty",
          "type": "address"
        }
      ],
      "name": "createAgreement",
      "outputs": [],
      "stateMutability": "nonpayable",
      "type": "function"
    },
    {
      "inputs": [],
      "name": "fee",
      "outputs": [
        {
          "internalType": "uint256",
          "name": "",
          "type": "uint256"
        }
      ],
      "stateMutability": "view",
      "type": "function"
    },
    {
      "inputs": [
        {
          "internalType": "uint256",
          "name": "agreement",
          "type": "uint256"
        }
      ],
      "name": "getToken",
      "outputs": [
        {
          "internalType": "address",
          "name": "",
          "type": "address"
        }
      ],
      "stateMutability": "view",
      "type": "function"
    },
    {
      "inputs": [
        {
          "internalType": "uint256",
          "name": "agreement",
          "type": "uint256"
        }
      ],
      "name": "multiplier",
      "outputs": [
        {
          "internalType": "uint256",
          "name": "",
          "type": "uint256"
        }
      ],
      "stateMutability": "view",
      "type": "function"
    },
    {
      "inputs": [],
      "name": "numberOfAgreements",
      "outputs": [
        {
          "internalType": "uint256",
          "name": "",
          "type": "uint256"
        }
      ],
      "stateMutability": "view",
      "type": "function"
    },
    {
      "inputs": [
        {
          "internalType": "uint256",
          "name": "agreement",
          "type": "uint256"
        }
      ],
      "name": "originator",
      "outputs": [
        {
          "internalType": "address",
          "name": "",
          "type": "address"
        }
      ],
      "stateMutability": "view",
      "type": "function"
    },
    {
      "inputs": [],
      "name": "owner",
      "outputs": [
        {
          "internalType": "address",
          "name": "",
          "type": "address"
        }
      ],
      "stateMutability": "view",
      "type": "function"
    },
    {
      "inputs": [
        {
          "internalType": "uint256",
          "name": "agreement",
          "type": "uint256"
        }
      ],
      "name": "premium",
      "outputs": [
        {
          "internalType": "uint256",
          "name": "",
          "type": "uint256"
        }
      ],
      "stateMutability": "view",
      "type": "function"
    },
    {
      "inputs": [
        {
          "internalType": "uint256",
          "name": "agreement",
          "type": "uint256"
        }
      ],
      "name": "price_at_agreement",
      "outputs": [
        {
          "internalType": "uint256",
          "name": "",
          "type": "uint256"
        }
      ],
      "stateMutability": "view",
      "type": "function"
    },
    {
      "inputs": [
        {
          "internalType": "address",
          "name": "_token",
          "type": "address"
        }
      ],
      "name": "removeToken",
      "outputs": [],
      "stateMutability": "nonpayable",
      "type": "function"
    },
    {
      "inputs": [],
      "name": "renounceOwnership",
      "outputs": [],
      "stateMutability": "nonpayable",
      "type": "function"
    },
    {
      "inputs": [
        {
          "internalType": "uint256",
          "name": "_PLAIN_fee",
          "type": "uint256"
        }
      ],
      "name": "setFee",
      "outputs": [],
      "stateMutability": "nonpayable",
      "type": "function"
    },
    {
      "inputs": [
        {
          "internalType": "address",
          "name": "newOwner",
          "type": "address"
        }
      ],
      "name": "transferOwnership",
      "outputs": [],
      "stateMutability": "nonpayable",
      "type": "function"
    },
    {
      "inputs": [
        {
          "internalType": "address",
          "name": "plain",
          "type": "address"
        }
      ],
      "name": "upgradePLAIN",
      "outputs": [],
      "stateMutability": "nonpayable",
      "type": "function"
    },
    {
      "inputs": [
        {
          "internalType": "address",
          "name": "pc",
          "type": "address"
        }
      ],
      "name": "upgradePriceConsumer",
      "outputs": [],
      "stateMutability": "nonpayable",
      "type": "function"
    }
  ],
  "bytecode": "0x6080604052670de0b6b3a7640000600155670de0b6b3a7640000600162000027919062000263565b6003553480156200003757600080fd5b50604051620031213803806200312183398181016040528101906200005d919062000222565b60006200006f6200020360201b60201c565b9050806000806101000a81548173ffffffffffffffffffffffffffffffffffffffff021916908373ffffffffffffffffffffffffffffffffffffffff1602179055508073ffffffffffffffffffffffffffffffffffffffff16600073ffffffffffffffffffffffffffffffffffffffff167f8be0079c531659141344cd1fd0a4f28419497f9722a3daafe3b4186f6b6457e060405160405180910390a35060016002600073a36085f69e2889c224210f603d836748e7dc008873ffffffffffffffffffffffffffffffffffffffff1673ffffffffffffffffffffffffffffffffffffffff16815260200190815260200160002060006101000a81548160ff02191690831515021790555081600760006101000a81548173ffffffffffffffffffffffffffffffffffffffff021916908373ffffffffffffffffffffffffffffffffffffffff16021790555080600660006101000a81548173ffffffffffffffffffffffffffffffffffffffff021916908373ffffffffffffffffffffffffffffffffffffffff16021790555050506200034b565b600033905090565b6000815190506200021c8162000331565b92915050565b600080604083850312156200023657600080fd5b600062000246858286016200020b565b925050602062000259858286016200020b565b9150509250929050565b60006200027082620002f8565b91506200027d83620002f8565b9250817fffffffffffffffffffffffffffffffffffffffffffffffffffffffffffffffff0483118215151615620002b957620002b862000302565b5b828202905092915050565b6000620002d182620002d8565b9050919050565b600073ffffffffffffffffffffffffffffffffffffffff82169050919050565b6000819050919050565b7f4e487b7100000000000000000000000000000000000000000000000000000000600052601160045260246000fd5b6200033c81620002c4565b81146200034857600080fd5b50565b612dc6806200035b6000396000f3fe608060405234801561001057600080fd5b50600436106101425760003560e01c8063c0c90c35116100b8578063d97604341161007c578063d97604341461037c578063ddca3f43146103ac578063de41faf6146103ca578063e4b50cb8146103fa578063e501dde21461042a578063f2fde38b1461044657610142565b8063c0c90c35146102c8578063c410d9d3146102e4578063c738670414610314578063c839f15f14610330578063d48bfca71461036057610142565b806369fe0e2d1161010a57806369fe0e2d146101fb578063715018a6146102175780638c8b0439146102215780638da5cb5b14610251578063954e69931461026f578063bd14de961461028d57610142565b8063035d98071461014757806305e30f51146101775780630bbae74a146101a75780634ebd01d8146101c35780635fa7b584146101df575b600080fd5b610161600480360381019061015c9190612480565b610462565b60405161016e91906129a1565b60405180910390f35b610191600480360381019061018c9190612572565b610482565b60405161019e9190612a9c565b60405180910390f35b6101c160048036038101906101bc91906124a9565b6104d7565b005b6101dd60048036038101906101d89190612480565b61092b565b005b6101f960048036038101906101f49190612480565b6109eb565b005b61021560048036038101906102109190612572565b610ac2565b005b61021f610b48565b005b61023b60048036038101906102369190612572565b610c82565b6040516102489190612a9c565b60405180910390f35b610259610cd7565b604051610266919061286c565b60405180910390f35b610277610d00565b6040516102849190612a9c565b60405180910390f35b6102a760048036038101906102a29190612572565b610d0d565b6040516102bf9c9b9a99989796959493929190612887565b60405180910390f35b6102e260048036038101906102dd9190612572565b610e0a565b005b6102fe60048036038101906102f99190612572565b6111cb565b60405161030b9190612a9c565b60405180910390f35b61032e60048036038101906103299190612572565b611220565b005b61034a60048036038101906103459190612572565b6117d3565b6040516103579190612a9c565b60405180910390f35b61037a60048036038101906103759190612480565b611828565b005b61039660048036038101906103919190612572565b6118ff565b6040516103a3919061286c565b60405180910390f35b6103b4611974565b6040516103c19190612a9c565b60405180910390f35b6103e460048036038101906103df9190612572565b61197a565b6040516103f19190612a9c565b60405180910390f35b610414600480360381019061040f9190612572565b6119cf565b604051610421919061286c565b60405180910390f35b610444600480360381019061043f9190612480565b611a44565b005b610460600480360381019061045b9190612480565b611b04565b005b60026020528060005260406000206000915054906101000a900460ff1681565b6000600582815481106104be577f4e487b7100000000000000000000000000000000000000000000000000000000600052603260045260246000fd5b90600052602060002090600c0201600701549050919050565b6104df612371565b6000600660009054906101000a900473ffffffffffffffffffffffffffffffffffffffff16905086826060019073ffffffffffffffffffffffffffffffffffffffff16908173ffffffffffffffffffffffffffffffffffffffff16815250508073ffffffffffffffffffffffffffffffffffffffff1663d02641a0886040518263ffffffff1660e01b8152600401610577919061286c565b602060405180830381600087803b15801561059157600080fd5b505af11580156105a5573d6000803e3d6000fd5b505050506040513d601f19601f820116820180604052508101906105c99190612549565b8260c00181815250506105da611cad565b82608001818152505033826000019073ffffffffffffffffffffffffffffffffffffffff16908173ffffffffffffffffffffffffffffffffffffffff168152505082826040019073ffffffffffffffffffffffffffffffffffffffff16908173ffffffffffffffffffffffffffffffffffffffff16815250506000826020019073ffffffffffffffffffffffffffffffffffffffff16908173ffffffffffffffffffffffffffffffffffffffff1681525050836201518061069b9190612bf6565b426106a69190612b6f565b8260a0018181525050858260e0018181525050858261014001818152505084826101000181815250506000826101600190151590811515815250506106ea33611cb5565b506106fa33836060015188611d74565b60058290806001815401808255809150506001900390600052602060002090600c020160009091909190915060008201518160000160006101000a81548173ffffffffffffffffffffffffffffffffffffffff021916908373ffffffffffffffffffffffffffffffffffffffff16021790555060208201518160010160006101000a81548173ffffffffffffffffffffffffffffffffffffffff021916908373ffffffffffffffffffffffffffffffffffffffff16021790555060408201518160020160006101000a81548173ffffffffffffffffffffffffffffffffffffffff021916908373ffffffffffffffffffffffffffffffffffffffff16021790555060608201518160030160006101000a81548173ffffffffffffffffffffffffffffffffffffffff021916908373ffffffffffffffffffffffffffffffffffffffff1602179055506080820151816004015560a0820151816005015560c0820151816006015560e082015181600701556101008201518160080155610120820151816009015561014082015181600a015561016082015181600b0160006101000a81548160ff02191690831515021790555050507f3380c7f96ce06d5c260569634f397e9d937ba15f864127bbfd1a7b74e4233d1960016005805490506108e19190612c50565b836000015184606001518560a001518660c001518760e0015188610100015189610140015160405161091a989796959493929190612ae0565b60405180910390a150505050505050565b610933611e09565b73ffffffffffffffffffffffffffffffffffffffff16610951610cd7565b73ffffffffffffffffffffffffffffffffffffffff16146109a7576040517f08c379a000000000000000000000000000000000000000000000000000000000815260040161099e90612a3c565b60405180910390fd5b80600660006101000a81548173ffffffffffffffffffffffffffffffffffffffff021916908373ffffffffffffffffffffffffffffffffffffffff16021790555050565b6109f3611e09565b73ffffffffffffffffffffffffffffffffffffffff16610a11610cd7565b73ffffffffffffffffffffffffffffffffffffffff1614610a67576040517f08c379a0000000000000000000000000000000000000000000000000000000008152600401610a5e90612a3c565b60405180910390fd5b6000600260008373ffffffffffffffffffffffffffffffffffffffff1673ffffffffffffffffffffffffffffffffffffffff16815260200190815260200160002060006101000a81548160ff02191690831515021790555050565b610aca611e09565b73ffffffffffffffffffffffffffffffffffffffff16610ae8610cd7565b73ffffffffffffffffffffffffffffffffffffffff1614610b3e576040517f08c379a0000000000000000000000000000000000000000000000000000000008152600401610b3590612a3c565b60405180910390fd5b8060038190555050565b610b50611e09565b73ffffffffffffffffffffffffffffffffffffffff16610b6e610cd7565b73ffffffffffffffffffffffffffffffffffffffff1614610bc4576040517f08c379a0000000000000000000000000000000000000000000000000000000008152600401610bbb90612a3c565b60405180910390fd5b600073ffffffffffffffffffffffffffffffffffffffff1660008054906101000a900473ffffffffffffffffffffffffffffffffffffffff1673ffffffffffffffffffffffffffffffffffffffff167f8be0079c531659141344cd1fd0a4f28419497f9722a3daafe3b4186f6b6457e060405160405180910390a360008060006101000a81548173ffffffffffffffffffffffffffffffffffffffff021916908373ffffffffffffffffffffffffffffffffffffffff160217905550565b600060058281548110610cbe577f4e487b7100000000000000000000000000000000000000000000000000000000600052603260045260246000fd5b90600052602060002090600c0201600601549050919050565b60008060009054906101000a900473ffffffffffffffffffffffffffffffffffffffff16905090565b6000600580549050905090565b60058181548110610d1d57600080fd5b90600052602060002090600c02016000915090508060000160009054906101000a900473ffffffffffffffffffffffffffffffffffffffff16908060010160009054906101000a900473ffffffffffffffffffffffffffffffffffffffff16908060020160009054906101000a900473ffffffffffffffffffffffffffffffffffffffff16908060030160009054906101000a900473ffffffffffffffffffffffffffffffffffffffff169080600401549080600501549080600601549080600701549080600801549080600901549080600a01549080600b0160009054906101000a900460ff1690508c565b6000151560058281548110610e48577f4e487b7100000000000000000000000000000000000000000000000000000000600052603260045260246000fd5b90600052602060002090600c0201600b0160009054906101000a900460ff16151514610ea9576040517f08c379a0000000000000000000000000000000000000000000000000000000008152600401610ea0906129bc565b60405180910390fd5b600073ffffffffffffffffffffffffffffffffffffffff1660058281548110610efb577f4e487b7100000000000000000000000000000000000000000000000000000000600052603260045260246000fd5b90600052602060002090600c020160010160009054906101000a900473ffffffffffffffffffffffffffffffffffffffff1673ffffffffffffffffffffffffffffffffffffffff1614610f83576040517f08c379a0000000000000000000000000000000000000000000000000000000008152600401610f7a906129fc565b60405180910390fd5b600073ffffffffffffffffffffffffffffffffffffffff1660058281548110610fd5577f4e487b7100000000000000000000000000000000000000000000000000000000600052603260045260246000fd5b90600052602060002090600c020160020160009054906101000a900473ffffffffffffffffffffffffffffffffffffffff1673ffffffffffffffffffffffffffffffffffffffff16146110fc573373ffffffffffffffffffffffffffffffffffffffff1660058281548110611073577f4e487b7100000000000000000000000000000000000000000000000000000000600052603260045260246000fd5b90600052602060002090600c020160020160009054906101000a900473ffffffffffffffffffffffffffffffffffffffff1673ffffffffffffffffffffffffffffffffffffffff16146110fb576040517f08c379a00000000000000000000000000000000000000000000000000000000081526004016110f290612a1c565b60405180910390fd5b5b3360058281548110611137577f4e487b7100000000000000000000000000000000000000000000000000000000600052603260045260246000fd5b90600052602060002090600c020160010160006101000a81548173ffffffffffffffffffffffffffffffffffffffff021916908373ffffffffffffffffffffffffffffffffffffffff16021790555061118f81611e11565b7f2ae1c289a5201a61fa50fb3cad20282884ab5210d77e050d9169a47376b5c60881336040516111c0929190612ab7565b60405180910390a150565b600060058281548110611207577f4e487b7100000000000000000000000000000000000000000000000000000000600052603260045260246000fd5b90600052602060002090600c0201600501549050919050565b60006005828154811061125c577f4e487b7100000000000000000000000000000000000000000000000000000000600052603260045260246000fd5b90600052602060002090600c020160000160009054906101000a900473ffffffffffffffffffffffffffffffffffffffff1673ffffffffffffffffffffffffffffffffffffffff163373ffffffffffffffffffffffffffffffffffffffff16148061135d5750600582815481106112fc577f4e487b7100000000000000000000000000000000000000000000000000000000600052603260045260246000fd5b90600052602060002090600c020160010160009054906101000a900473ffffffffffffffffffffffffffffffffffffffff1673ffffffffffffffffffffffffffffffffffffffff163373ffffffffffffffffffffffffffffffffffffffff16145b61139c576040517f08c379a000000000000000000000000000000000000000000000000000000000815260040161139390612a5c565b60405180910390fd5b600073ffffffffffffffffffffffffffffffffffffffff16600583815481106113ee577f4e487b7100000000000000000000000000000000000000000000000000000000600052603260045260246000fd5b90600052602060002090600c020160010160009054906101000a900473ffffffffffffffffffffffffffffffffffffffff1673ffffffffffffffffffffffffffffffffffffffff1614156116a55760058281548110611476577f4e487b7100000000000000000000000000000000000000000000000000000000600052603260045260246000fd5b90600052602060002090600c020160030160009054906101000a900473ffffffffffffffffffffffffffffffffffffffff1673ffffffffffffffffffffffffffffffffffffffff1663a9059cbb600584815481106114fd577f4e487b7100000000000000000000000000000000000000000000000000000000600052603260045260246000fd5b90600052602060002090600c020160000160009054906101000a900473ffffffffffffffffffffffffffffffffffffffff1660058581548110611569577f4e487b7100000000000000000000000000000000000000000000000000000000600052603260045260246000fd5b90600052602060002090600c0201600a01546040518363ffffffff1660e01b8152600401611598929190612978565b602060405180830381600087803b1580156115b257600080fd5b505af11580156115c6573d6000803e3d6000fd5b505050506040513d601f19601f820116820180604052508101906115ea9190612520565b50600060058381548110611627577f4e487b7100000000000000000000000000000000000000000000000000000000600052603260045260246000fd5b90600052602060002090600c0201600a0181905550600160058381548110611678577f4e487b7100000000000000000000000000000000000000000000000000000000600052603260045260246000fd5b90600052602060002090600c0201600b0160006101000a81548160ff02191690831515021790555061176b565b6116ae82611f7c565b1561176a576116bc82612079565b600583815481106116f6577f4e487b7100000000000000000000000000000000000000000000000000000000600052603260045260246000fd5b90600052602060002090600c020160090181905550600060058381548110611747577f4e487b7100000000000000000000000000000000000000000000000000000000600052603260045260246000fd5b90600052602060002090600c020160090154111561176957611768826121bf565b5b5b5b6001600583815481106117a7577f4e487b7100000000000000000000000000000000000000000000000000000000600052603260045260246000fd5b90600052602060002090600c0201600b0160006101000a81548160ff0219169083151502179055505050565b60006005828154811061180f577f4e487b7100000000000000000000000000000000000000000000000000000000600052603260045260246000fd5b90600052602060002090600c0201600801549050919050565b611830611e09565b73ffffffffffffffffffffffffffffffffffffffff1661184e610cd7565b73ffffffffffffffffffffffffffffffffffffffff16146118a4576040517f08c379a000000000000000000000000000000000000000000000000000000000815260040161189b90612a3c565b60405180910390fd5b6001600260008373ffffffffffffffffffffffffffffffffffffffff1673ffffffffffffffffffffffffffffffffffffffff16815260200190815260200160002060006101000a81548160ff02191690831515021790555050565b60006005828154811061193b577f4e487b7100000000000000000000000000000000000000000000000000000000600052603260045260246000fd5b90600052602060002090600c020160000160009054906101000a900473ffffffffffffffffffffffffffffffffffffffff169050919050565b60015481565b6000600582815481106119b6577f4e487b7100000000000000000000000000000000000000000000000000000000600052603260045260246000fd5b90600052602060002090600c0201600a01549050919050565b600060058281548110611a0b577f4e487b7100000000000000000000000000000000000000000000000000000000600052603260045260246000fd5b90600052602060002090600c020160030160009054906101000a900473ffffffffffffffffffffffffffffffffffffffff169050919050565b611a4c611e09565b73ffffffffffffffffffffffffffffffffffffffff16611a6a610cd7565b73ffffffffffffffffffffffffffffffffffffffff1614611ac0576040517f08c379a0000000000000000000000000000000000000000000000000000000008152600401611ab790612a3c565b60405180910390fd5b80600760006101000a81548173ffffffffffffffffffffffffffffffffffffffff021916908373ffffffffffffffffffffffffffffffffffffffff16021790555050565b611b0c611e09565b73ffffffffffffffffffffffffffffffffffffffff16611b2a610cd7565b73ffffffffffffffffffffffffffffffffffffffff1614611b80576040517f08c379a0000000000000000000000000000000000000000000000000000000008152600401611b7790612a3c565b60405180910390fd5b600073ffffffffffffffffffffffffffffffffffffffff168173ffffffffffffffffffffffffffffffffffffffff161415611bf0576040517f08c379a0000000000000000000000000000000000000000000000000000000008152600401611be7906129dc565b60405180910390fd5b8073ffffffffffffffffffffffffffffffffffffffff1660008054906101000a900473ffffffffffffffffffffffffffffffffffffffff1673ffffffffffffffffffffffffffffffffffffffff167f8be0079c531659141344cd1fd0a4f28419497f9722a3daafe3b4186f6b6457e060405160405180910390a3806000806101000a81548173ffffffffffffffffffffffffffffffffffffffff021916908373ffffffffffffffffffffffffffffffffffffffff16021790555050565b600042905090565b6000600760009054906101000a900473ffffffffffffffffffffffffffffffffffffffff1673ffffffffffffffffffffffffffffffffffffffff166323b872dd83306001546040518463ffffffff1660e01b8152600401611d1893929190612941565b602060405180830381600087803b158015611d3257600080fd5b505af1158015611d46573d6000803e3d6000fd5b505050506040513d601f19601f82011682018060405250810190611d6a9190612520565b5060019050919050565b8173ffffffffffffffffffffffffffffffffffffffff166323b872dd8430846040518463ffffffff1660e01b8152600401611db193929190612941565b602060405180830381600087803b158015611dcb57600080fd5b505af1158015611ddf573d6000803e3d6000fd5b505050506040513d601f19601f82011682018060405250810190611e039190612520565b50505050565b600033905090565b600760009054906101000a900473ffffffffffffffffffffffffffffffffffffffff1673ffffffffffffffffffffffffffffffffffffffff166323b872dd60058381548110611e89577f4e487b7100000000000000000000000000000000000000000000000000000000600052603260045260246000fd5b90600052602060002090600c020160010160009054906101000a900473ffffffffffffffffffffffffffffffffffffffff163060058581548110611ef6577f4e487b7100000000000000000000000000000000000000000000000000000000600052603260045260246000fd5b90600052602060002090600c0201600801546040518463ffffffff1660e01b8152600401611f2693929190612941565b602060405180830381600087803b158015611f4057600080fd5b505af1158015611f54573d6000803e3d6000fd5b505050506040513d601f19601f82011682018060405250810190611f789190612520565b5050565b600060058281548110611fb8577f4e487b7100000000000000000000000000000000000000000000000000000000600052603260045260246000fd5b90600052602060002090600c02016005015442101561200c576040517f08c379a000000000000000000000000000000000000000000000000000000000815260040161200390612a7c565b60405180910390fd5b600160058381548110612048577f4e487b7100000000000000000000000000000000000000000000000000000000600052603260045260246000fd5b90600052602060002090600c0201600b0160006101000a81548160ff02191690831515021790555060019050919050565b600080600660009054906101000a900473ffffffffffffffffffffffffffffffffffffffff169050600080615e009150600585815481106120e3577f4e487b7100000000000000000000000000000000000000000000000000000000600052603260045260246000fd5b90600052602060002090600c020160060154821061210457600090506121b4565b6005858154811061213e577f4e487b7100000000000000000000000000000000000000000000000000000000600052603260045260246000fd5b90600052602060002090600c0201600601546005868154811061218a577f4e487b7100000000000000000000000000000000000000000000000000000000600052603260045260246000fd5b90600052602060002090600c020160070154836121a79190612bf6565b6121b19190612bc5565b90505b809350505050919050565b600581815481106121f9577f4e487b7100000000000000000000000000000000000000000000000000000000600052603260045260246000fd5b90600052602060002090600c020160030160009054906101000a900473ffffffffffffffffffffffffffffffffffffffff1673ffffffffffffffffffffffffffffffffffffffff1663a9059cbb60058381548110612280577f4e487b7100000000000000000000000000000000000000000000000000000000600052603260045260246000fd5b90600052602060002090600c020160010160009054906101000a900473ffffffffffffffffffffffffffffffffffffffff16600584815481106122ec577f4e487b7100000000000000000000000000000000000000000000000000000000600052603260045260246000fd5b90600052602060002090600c0201600901546040518363ffffffff1660e01b815260040161231b929190612978565b602060405180830381600087803b15801561233557600080fd5b505af1158015612349573d6000803e3d6000fd5b505050506040513d601f19601f8201168201806040525081019061236d9190612520565b5050565b604051806101800160405280600073ffffffffffffffffffffffffffffffffffffffff168152602001600073ffffffffffffffffffffffffffffffffffffffff168152602001600073ffffffffffffffffffffffffffffffffffffffff168152602001600073ffffffffffffffffffffffffffffffffffffffff168152602001600081526020016000815260200160008152602001600081526020016000815260200160008152602001600081526020016000151581525090565b60008135905061243b81612d34565b92915050565b60008151905061245081612d4b565b92915050565b60008151905061246581612d62565b92915050565b60008135905061247a81612d79565b92915050565b60006020828403121561249257600080fd5b60006124a08482850161242c565b91505092915050565b600080600080600060a086880312156124c157600080fd5b60006124cf8882890161242c565b95505060206124e08882890161246b565b94505060406124f18882890161246b565b93505060606125028882890161246b565b92505060806125138882890161242c565b9150509295509295909350565b60006020828403121561253257600080fd5b600061254084828501612441565b91505092915050565b60006020828403121561255b57600080fd5b600061256984828501612456565b91505092915050565b60006020828403121561258457600080fd5b60006125928482850161246b565b91505092915050565b6125a481612c84565b82525050565b6125b381612c96565b82525050565b60006125c6601c83612b5e565b91507f41677265656d656e742068617320616c726561647920636c6f736564000000006000830152602082019050919050565b6000612606602683612b5e565b91507f4f776e61626c653a206e6577206f776e657220697320746865207a65726f206160008301527f64647265737300000000000000000000000000000000000000000000000000006020830152604082019050919050565b600061266c602383612b5e565b91507f41677265656d656e7420616c72656164792068617320636f756e74657220706160008301527f72747900000000000000000000000000000000000000000000000000000000006020830152604082019050919050565b60006126d2602a83612b5e565b91507f546869732061677265656d656e7420686173206120726571756972656420636f60008301527f756e7465727061727479000000000000000000000000000000000000000000006020830152604082019050919050565b6000612738602083612b5e565b91507f4f776e61626c653a2063616c6c6572206973206e6f7420746865206f776e65726000830152602082019050919050565b6000612778604983612b5e565b91507f41677265656d656e742063616e206f6e6c7920626520636c6f7365642062792060008301527f7468652061677265656d656e74206f726967696e61746f72206f7220636f756e60208301527f74657220706172747900000000000000000000000000000000000000000000006040830152606082019050919050565b6000612804602d83612b5e565b91507f41677265656d656e74206973206e6f742079657420636c6f7365642e2054727960008301527f20616761696e206c617465722e000000000000000000000000000000000000006020830152604082019050919050565b61286681612ccc565b82525050565b6000602082019050612881600083018461259b565b92915050565b60006101808201905061289d600083018f61259b565b6128aa602083018e61259b565b6128b7604083018d61259b565b6128c4606083018c61259b565b6128d1608083018b61285d565b6128de60a083018a61285d565b6128eb60c083018961285d565b6128f860e083018861285d565b61290661010083018761285d565b61291461012083018661285d565b61292261014083018561285d565b6129306101608301846125aa565b9d9c50505050505050505050505050565b6000606082019050612956600083018661259b565b612963602083018561259b565b612970604083018461285d565b949350505050565b600060408201905061298d600083018561259b565b61299a602083018461285d565b9392505050565b60006020820190506129b660008301846125aa565b92915050565b600060208201905081810360008301526129d5816125b9565b9050919050565b600060208201905081810360008301526129f5816125f9565b9050919050565b60006020820190508181036000830152612a158161265f565b9050919050565b60006020820190508181036000830152612a35816126c5565b9050919050565b60006020820190508181036000830152612a558161272b565b9050919050565b60006020820190508181036000830152612a758161276b565b9050919050565b60006020820190508181036000830152612a95816127f7565b9050919050565b6000602082019050612ab1600083018461285d565b92915050565b6000604082019050612acc600083018561285d565b612ad9602083018461259b565b9392505050565b600061010082019050612af6600083018b61285d565b612b03602083018a61259b565b612b10604083018961259b565b612b1d606083018861285d565b612b2a608083018761285d565b612b3760a083018661285d565b612b4460c083018561285d565b612b5160e083018461285d565b9998505050505050505050565b600082825260208201905092915050565b6000612b7a82612ccc565b9150612b8583612ccc565b9250827fffffffffffffffffffffffffffffffffffffffffffffffffffffffffffffffff03821115612bba57612bb9612cd6565b5b828201905092915050565b6000612bd082612ccc565b9150612bdb83612ccc565b925082612beb57612bea612d05565b5b828204905092915050565b6000612c0182612ccc565b9150612c0c83612ccc565b9250817fffffffffffffffffffffffffffffffffffffffffffffffffffffffffffffffff0483118215151615612c4557612c44612cd6565b5b828202905092915050565b6000612c5b82612ccc565b9150612c6683612ccc565b925082821015612c7957612c78612cd6565b5b828203905092915050565b6000612c8f82612cac565b9050919050565b60008115159050919050565b6000819050919050565b600073ffffffffffffffffffffffffffffffffffffffff82169050919050565b6000819050919050565b7f4e487b7100000000000000000000000000000000000000000000000000000000600052601160045260246000fd5b7f4e487b7100000000000000000000000000000000000000000000000000000000600052601260045260246000fd5b612d3d81612c84565b8114612d4857600080fd5b50565b612d5481612c96565b8114612d5f57600080fd5b50565b612d6b81612ca2565b8114612d7657600080fd5b50565b612d8281612ccc565b8114612d8d57600080fd5b5056fea2646970667358221220e195d7c31da28e29413a2b84359544f0e35ef0ac5251e8092f23e808fb6ba86e64736f6c63430008000033",
  "linkReferences": {},
  "deployedLinkReferences": {}
}