{
  "_format": "hh-sol-artifact-1",
  "contractName": "PriceConsumerV3",
  "sourceName": "contracts/plainLang.sol",
  "abi": [
    {
      "inputs": [
        {
          "internalType": "address",
          "name": "token",
          "type": "address"
        }
      ],
      "name": "addOracle",
      "outputs": [],
      "stateMutability": "nonpayable",
      "type": "function"
    },
    {
      "inputs": [
        {
          "internalType": "address",
          "name": "token",
          "type": "address"
        }
      ],
      "name": "delOracle",
      "outputs": [],
      "stateMutability": "nonpayable",
      "type": "function"
    },
    {
      "inputs": [
        {
          "internalType": "address",
          "name": "token",
          "type": "address"
        }
      ],
      "name": "getTokenPrice",
      "outputs": [
        {
          "internalType": "int256",
          "name": "",
          "type": "int256"
        }
      ],
      "stateMutability": "nonpayable",
      "type": "function"
    }
  ],
  "bytecode": "0x608060405234801561001057600080fd5b506101ac806100206000396000f3fe608060405234801561001057600080fd5b50600436106100415760003560e01c80637dc7937514610046578063d02641a014610062578063df5dd1a514610092575b600080fd5b610060600480360381019061005b91906100d0565b6100ae565b005b61007c600480360381019061007791906100d0565b6100b1565b6040516100899190610108565b60405180910390f35b6100ac60048036038101906100a791906100d0565b6100b8565b005b50565b6000919050565b50565b6000813590506100ca8161015f565b92915050565b6000602082840312156100e257600080fd5b60006100f0848285016100bb565b91505092915050565b61010281610135565b82525050565b600060208201905061011d60008301846100f9565b92915050565b600061012e8261013f565b9050919050565b6000819050919050565b600073ffffffffffffffffffffffffffffffffffffffff82169050919050565b61016881610123565b811461017357600080fd5b5056fea2646970667358221220f2815a8c0dd2c009c059e1a4cd7b0c2b95c30a86036b7f22c76834331e7805b564736f6c63430008000033",
  "linkReferences": {},
  "deployedLinkReferences": {}
}